:020000040800F2
:1000000060050020C5000008CD000008CF000008F2
:1000100000000000000000000000000000000000E0
:10002000000000000000000000000000D1000008F7
:100030000000000000000000D3000008591A00086A
:10004000D700000800000000D7000008D700000813
:10005000D7000008D7000008D7000008D700000824
:1000600000000000D700000831010008D700000898
:10007000D7000008D7000008D700000800000000E3
:10008000D70000080000000000000000D7000008B2
:1000900000000000D7000008D7000008D7000008C3
:1000A00000000000D700000800000000D700000892
:1000B0000348854600F02AF800480047251E00083E
:1000C000600500200448804704480047FEE7FEE73B
:1000D000FEE7FEE7FEE7FEE7B51A0008B1000008FC
:1000E00030B50B46014600202022012409E00D46D0
:1000F000D5409D4205D31D469540491B2546954058
:1001000040191546521E002DF1DC30BD064C01256C
:10011000064E05E0E36807CC2B430C3C98471034AF
:10012000B442F7D3FFF7C8FFA0200008C0200008A2
:1001300010B5034800F07CF8024800F079F810BDD3
:10014000EC00002024010020F0B400281BD002465F
:1001500020325178022919D001680B685B085B00D6
:100160000B60036800211960036859600368996097
:100170000368D960294B0168294C2A4D2A4E9942BF
:1001800007D1022115E0F0BC01207047F0BC01202E
:100190007047A14201D120210BE0A94202D10121E7
:1001A000490206E0B14202D10121490301E00121E7
:1001B00049041E4F79600168994201D108210FE07E
:1001C000A14201D180210BE0A94202D10121C90243
:1001D00006E0B14202D10121C90301E00121C904B5
:1001E00079600168994201D104210FE0A14201D157
:1001F00040210BE0A94202D10121890206E0B1426F
:1002000002D10121890301E00121890479600021E3
:10021000416351701170F0BC00207047080002402B
:100220001C00024030000240440002400000024036
:10023000F8B504466E4802686E4901232068DB0366
:100240006D4E6E4F884201D108210FE0B04201D1BE
:1002500080210BE0B84202D10121C90206E06849C1
:10026000884201D1194601E00121C90425460A400E
:100270002035002A2CD00168C943090728D4016819
:100280000822914301605B492068884201D108201F
:100290000FE0B04201D180200BE0B84202D1012032
:1002A000C00206E05649884201D1184601E001200B
:1002B000C0044F494860606B01210843606304201B
:1002C000687000202870216B002901D020468847E3
:1002D00047480268474920680B15884201D104212C
:1002E0000FE0B04201D140210BE0B84201D11946E4
:1002F00007E04349884202D10121890301E001213D
:1003000089040A4229D00168C943490725D40168F4
:10031000890603D4026804218A43026035492068B3
:10032000884201D104200FE0B04201D140200BE00F
:10033000B84201D1184607E03149884202D1012074
:10034000800301E001208004294948601120687081
:10035000E16A002901D02046884725480268254BDC
:100360002068984201D1022110E0B04201D1202141
:100370000CE0B84202D10121490207E0204988423D
:1003800002D10121490301E0012149040A422DD093
:100390000168C943890729D40168890603D4016823
:1003A0000222914301602068984201D1022010E0AE
:1003B000B04201D120200CE0B84202D1012040021D
:1003C00007E00F49884202D10120400301E00120EB
:1003D000400407494860606B60630120687000203A
:1003E0002870A16A002901D020468847F8BD000086
:1003F00000000240080002401C00024030000240A1
:1004000044000240F0B4002806D0014620314A786A
:100410000025002A03D003E0F0BC012070470D70D6
:1004200002224A70026814680B4B1C4086684368BD
:1004300007693343C6683E4333434669334386699D
:100440003343C66933432343136045630120487037
:10045000F0BC0020704700000FC0FFFF31B500F076
:1004600021F9044600F01EF90099001B8842F9D3D7
:1004700038BD0000F0B50022002959D00123934077
:100480009C460B40002B4FD0056856000324B44017
:10049000A5430560D508AD002D182E6AAE46550758
:1004A000EF0E0F25BD40AE4375462E628568A5430D
:1004B000856045686646B5434560C568A543C56027
:1004C00095081C4CAD002D19AC689607370F0F2608
:1004D000BE403440A4460924E406A04201D10024D1
:1004E0000FE0154CA04201D101240AE0134CA042B8
:1004F00001D1022405E0124CA04201D1032400E006
:100500000524BC4064450FD1AC68B443AC600D4CCD
:1005100025689D43256065689D436560A5689D438A
:10052000A560E5689D43E560521C0B46D340A5D10C
:10053000F0BD000000000140000400480008004831
:10054000000C004800040140F8B400220B68002BA6
:100550007ED0012494400B68A4462340002B78D021
:100560004C68022C01D0122C0CD1D408A400251800
:100570002C6A5607F60E0F27B740BC430F69B740E9
:1005800027432F62076855000324AC40A7430E7928
:10059000B607B60FAE403E4306604E68012E05D04A
:1005A000022E03D0112E01D0122E0ED18768A74340
:1005B000CE68AE403E43866047686646B7430E79D4
:1005C000F606F60F96403E434660C668A6438C6822
:1005D000AC403443C4604C68E4004AD5284CA5695B
:1005E00001263543A561A469344000949508254C43
:1005F000AD002F19BD689407240F0F26A640B54300
:100600000926F606B04201D100260FE01E4EB04288
:1006100001D101260AE01D4EB04201D1022605E0BB
:100620001B4EB04201D1032600E00526A6402E4312
:10063000BE60184D2C689C434E68F60300D51C43E1
:100640002C606C689C434E68B60300D51C4301E0E7
:1006500014E00EE06C60AC689C434E68F60200D576
:100660001C43AC60EC689C434E68B60200D51C434A
:10067000EC60521C0B68D34000D06AE7F8BC7047AE
:10068000001002400000014000040048000800483B
:10069000000C004800040140002A01D0816170472D
:1006A00081627047014800687047000084000020A4
:1006B00002480168491C0160704700008400002066
:1006C00010B506480168102211430160002000F0B7
:1006D00007F800F017F8002010BD000000200240CD
:1006E00010B5044600F042F97D21C900FFF7F8FC7F
:1006F00001F032F800222146501E00F015F80020CB
:1007000010BD000008B507488169012211438161CD
:1007100080691040009000221146501E00F004F83D
:1007200008BD0000001002408207D30EFF229A404D
:100730008907090E994000280BDA0007000F0838D6
:10074000830808489B001818C36993430B43C3618F
:100750007047830804489B001818036893430B43B1
:100760000360704700ED00E000E400E0F8B50446E7
:100770000F467B480068F022C007C00F794EB84290
:1007800070D2774801684908490039430160006820
:10079000C007C00FB84201D00120F8BD2078800703
:1007A00004D57068A1689043084370602078C00742
:1007B00051D06068012806D0022809D03168890725
:1007C0000BD40120F8BD3168890306D40120F8BD9F
:1007D0003168890101D40120F8BD71688908890058
:1007E00001437160FFF75EFF0546606801280DD088
:1007F00002281ED070680007800F2CD05A4FFFF7D8
:1008000051FF401BB84227D90320F8BD706800078C
:10081000800F01281FD0544FFFF744FF401BB84200
:1008200001D90320F8BD70680007800F0128F3D1BB
:1008300087E070680007800F02280CD04A4FFFF74E
:1008400031FF401BB84201D90320F8BD7068000792
:10085000800F0228F3D174E070680007800FCED1BA
:100860006FE0FFE72078800704D57068A1689043A7
:10087000084370602078C00756D06068012806D011
:10088000022809D0316889070BD40120F8BD3168EE
:10089000890306D40120F8BD3168890101D4012003
:1008A000F8BD71688908890001437160FFF7FAFE9D
:1008B0000546606801280DD002281ED07068000728
:1008C000800F31D0FFF7EEFE411B2748814227D928
:1008D0000320F8BD70680007800F012824D0FFF7BF
:1008E000E1FE411B2048814201D90320F8BD706818
:1008F0000007800F0128F2D116E070680007800F12
:10090000022811D0FFF7CEFE411B1748814201D9C2
:100910000320F8BD70680007800F0228F2D103E0C1
:1009200070680007800FCDD10D4801684908490063
:10093000394301600068C007C00FB84201D00120F0
:10094000F8BD2078400706D5706807210902884362
:10095000E168084370600020FFF7C2FE0020F8BD88
:1009600000200240001002408813000010B500F083
:1009700011F805494968054A0906090F515CC84044
:100980000349086010BD00000010024090200008DC
:100990007000002010B588B018A043688268016814
:1009A000C068059306920491079018A08368426876
:1009B0000168C0680293019200910390174B5A6836
:1009C0000C2011460140164804290FD008290DD1EA
:1009D0009102090F04AC645CD96A6B460907090FE0
:1009E000595CD20304D5FFF77BFB604308B010BD10
:1009F0000C492046484308B010BD0000020304051E
:100A0000060708090A0B0C0D0E0F10100102030453
:100A100005060708090A0B0C0D0E0F100010024006
:100A200000127A0000093D00F0B583B0044620783A
:100A3000FE4EFF4DC0077BD068680007800F01287D
:100A400007D068680007800F02280BD16868C003D0
:100A500008D5286880036BD56068002868D101201C
:100A600003B0F0BD286801273F04B8432860286818
:100A7000B90088432860FFF715FE029028688003BC
:100A80000BD5FFF70FFE0299401AB04202D903209E
:100A900003B0F0BD28688003F3D4606801281CD03F
:100AA00000281ED0052825D02868B843286029686A
:100AB00001208004814329606068002827D0FFF767
:100AC000F1FD07462868800332D4FFF7EBFDC01B19
:100AD000B04218D9032003B0F0BD2868384328601D
:100AE000EAE72868B8432860296801208004814328
:100AF0002960E1E728680121890408432860286803
:100B000038432860D8E728688003DED510E0FFF777
:100B1000C9FD0746286880030AD5FFF7C3FDC01B3F
:100B2000B04202D9032003B0F0BD28688003F4D49A
:100B3000207801278007002852DA68680007800FB4
:100B400007D068680007800F022813D16868C003C7
:100B500010D42868800705D5E068012802D001205C
:100B600003B0F0BD2868F82188432169C900084313
:100B7000286035E0E06800281CD0286838432860E9
:100B8000FFF790FD0290286880070BD4FFF78AFDDD
:100B90000299401A642802D9032003B0F0BD2868E6
:100BA0008007F3D52868F82188432169C9000843E4
:100BB000286015E02868400840002860FFF772FDB3
:100BC0000290286880070BD5FFF76CFD0299401A48
:100BD000642802D9032003B0F0BD28688007F3D44D
:100BE000207800072ED5206A002815D0686A38437F
:100BF0006862FFF757FD0290686A800722D4FFF70A
:100C000051FD0299401A642802D9032003B0F0BDB7
:100C1000686A8007F3D515E0686A4008400068629A
:100C2000FFF740FD0290686A80070BD5FFF73AFD99
:100C30000299401A642802D9032003B0F0BD686A03
:100C40008007F3D42078400771D5E86901210907AE
:100C50000843E861E8690840019076480068091592
:100C6000084374490860FFF71DFD02907148006851
:100C7000C0050CD4FFF716FD0299401A642802D96A
:100C8000032003B0F0BD6B480068C005F2D5286AA8
:100C9000400840002862296A042081432962FFF746
:100CA00001FD0290286A80070BD5FFF7FBFC029933
:100CB000401AB04202D9032003B0F0BD286A800771
:100CC000F3D4A06801281DD000281FD0052826D005
:100CD000286A400840002862296A0420814329626A
:100CE000A068002828D0FFF7DDFC0290286A800762
:100CF00034D4FFF7D7FC0299401AB04218D9032028
:100D000003B0F0BD286A38432862E9E7286A400842
:100D100040002862296A042081432962E0E7286AAA
:100D2000042108432862286A38432862D8E715E07E
:100D3000286A8007DDD511E0FFF7B4FC0290286A2D
:100D400080070BD5FFF7AEFC0299401AB04202D9DA
:100D5000032003B0F0BD286A8007F3D42078C006D2
:100D600049D56069012817D0401D35D0686B042132
:100D700008436863686B400840006863FFF792FCB3
:100D80000646686B800736D5FFF78CFC801B64280D
:100D90002ED9032003B0F0BD686B042108436863BB
:100DA000686B38436863FFF77DFC0646686B800715
:100DB0000AD4FFF777FC801B642802D9032003B014
:100DC000F0BD686B8007F4D5686BF8218843A16992
:100DD000C900084368630EE0686B042188436863B8
:100DE000686BF8218843A169C9000843686302E081
:100DF000686B8007C8D4606A00285BD069680907FF
:100E0000890F022959D001263606022817D02868F2
:100E1000B0432860FFF746FC04462868800149D5A6
:100E2000FFF740FC001B642841D905E0881300004F
:100E30000010024000700040032003B0F0BD28689D
:100E4000B0432860FFF72EFC0746286880010AD5CA
:100E5000FFF728FCC01B642802D9032003B0F0BDB3
:100E600028688001F4D4E86A216B00090001084376
:100E7000E862A16AE06A084369683D22120491436E
:100E800008436860286830432860FFF70BFC04467D
:100E9000286880010ED4FFF705FC001B642802D9E6
:100EA000032003B0F0BD28688001F4D502E0286873
:100EB0008001B5D4002003B0F0BD012003B0F0BD27
:100EC00070B50446002C10D00220254640356877C6
:100ED00020680168402291430160204600F072F8CA
:100EE000002020666877287770BD012070BD000063
:100EF000F8B50446002C06D025464035687F00260C
:100F0000002802D005E00120F8BD2E77204600F031
:100F100075F802226A7720680168402399430160CE
:100F20000723E0681B02984201D9002101E001215A
:100F300009030F273F02B84202D0984200D0A662B0
:100F4000276B002F05D1984201D9226301E00120CF
:100F50002063A26860686369104322691A431043E2
:100F60000123A2695B021A401043E2691043226A1E
:100F70001043A26A104322681060206B022804D13B
:100F8000206802689B001A430260626B606AA36972
:100F900010431B0C0427E2683B401A4310430843EC
:100FA000216848602168E06A08612068C169044AD4
:100FB0001140C1612666012068770020F8BD00005D
:100FC000FFF7000010B504460A49206888420FD197
:100FD000094881698214914381610920E021C0069A
:100FE000FFF748FAA06DFFF7AFF8606DFFF7ACF8B8
:100FF00010BD00000030014000100240F0B587B085
:1010000004461E492068884235D11D4882698114F2
:101010000A438261806908400190E020029002202A
:10102000039000250495032005900695092002A948
:10103000C006FFF789FA144E124830607560B5603B
:101040008027F76035617561B561F5613046FFF75E
:10105000D9F9A66574620E4E0C483060102070609D
:10106000B560F76035617561B561F5613046FFF7D0
:10107000C9F96665746207B0F0BD00000030014038
:10108000001002401C000240EC0000203000024032
:1010900024010020FFB583B004461E46FFF702FB83
:1010A000019000276168C81FFD3802D1A0680028A0
:1010B0000BD025464035287F01280FD00120287706
:1010C000687F01280DD002270BE1049A0096114693
:1010D0002046059B00F0D8F907B0F0BD022007B00C
:1010E000F0BD049800282ED0059800282BD00420AD
:1010F000687700202066049921640599A9800599E4
:10110000E980A063A087E0870120A16A40038142B3
:101110000DD120680168764A11400160206801689D
:101120000122520311430160E888401EE880072035
:10113000E1680002814208D9206841680122120357
:101140009143416007E00127CBE02068416801221C
:101150001203114341600121A068C903884205D1EF
:1011600020680168012292039143016020680168B0
:10117000490603D401684022114301600720E16859
:10118000000281421FD8E88800283CD0206881688E
:10119000C90708D0017B206C421C22640170E888DA
:1011A000401EE8800BE0002E07D0701C07D0FFF730
:1011B00079FA0199401AB04201D3032791E0E888F7
:1011C0000028E3D11FE0E88800281CD0206881684F
:1011D000C90709D0C068216C0880206C801C20647D
:1011E000E888401EE8800BE0002E07D0701C07D076
:1011F000FFF758FA0199401AB04201D3032770E073
:10120000E8880028E2D10120A16A4003814251D13F
:101210002068016801221203114301600122334654
:101220001146204600F0C0FB002801D0032758E0FB
:101230000720E1680002814204D92068C068216C5F
:10124000088003E02068007B216C0870012233468F
:101250001146204600F0A8FB002803D0022020669B
:1012600003273EE00F21E0680902884205D120688B
:10127000C0680290694608891CE02168097B0291D8
:101280006A46118907210902884213D1206B02287E
:1012900010D1012233461146204600F085FB00287C
:1012A00003D00220206603271BE02068007B029009
:1012B000694608893146204600F0BCFA002801D072
:1012C0002020206620688168C943C90605D4216EA4
:1012D00002221143216607498160206E002800D058
:1012E00001270120687700202877384607B0F0BD35
:1012F000FFDF0000EFFF0000FFB583B004461D468E
:10130000FFF7D0F90290002726464036307F0128AB
:1013100006D001203077707F012804D00227AAE090
:10132000022007B0F0BD0498002848D00598002896
:1013300045D003207077002020660499A1630599A9
:10134000A1870599E1872064B080F0800121A06821
:10135000C903884205D12068016801229203114324
:1013600001600120A16A400381420AD1206801681E
:10137000444A114001602068016801225203114370
:10138000016020680168490603D4016840221143C6
:1013900001600721E0680902884222D9E08F002815
:1013A0004BD02068816889070BD5A16B0988C16083
:1013B000A06B801CA063E08F401EE0870DE001273A
:1013C00059E0002D07D0681C07D0FFF76BF9029990
:1013D000401AA84201D303274DE0E08F0028E0D156
:1013E0002BE0E08F002828D020688168890715D578
:1013F000E18F012909D9A16B0988C160A06B801C0C
:10140000A063E08F801EE08714E0A16B4A1CA263FA
:1014100009780173E08F401EE0870BE0002D07D0B4
:10142000681C07D0FFF73EF90299401AA84201D381
:10143000032720E0E08F0028D6D10120A16A4003D5
:10144000814205D120680168012212031143016025
:101450002946204600F02DFA002801D020202066E1
:10146000A068002803D12068C16880680190206EC0
:10147000002800D0012701207077002030773846FF
:1014800007B0F0BDFFDF0000FFB583B004460C9F3E
:10149000FFF708F90190002625464035287F0128EE
:1014A00006D001202877687F012804D0022638E181
:1014B000022007B0F0BD0498002834D00598002819
:1014C00031D0069800282ED00520687700202066AD
:1014D000059820640698E8800698A8800498A06380
:1014E0000698E0870698A0870120A16A4003814200
:1014F0000AD1206801688E4A1140016020680168A5
:10150000012252031143016007200123E168000218
:101510001B03814202D8E888012806D92068426866
:101520009A43426005E00126FBE0206841681943C8
:10153000416020680168490603D4016840221143D4
:1015400001600720E1680002814237D892E000285C
:101550001AD020688168890716D5A16B0988C160F7
:10156000A06B801CA063E08F401E80B2E087002843
:101570000AD10120A16A4003814205D12068016897
:101580000122120311430160E88800280CD0206872
:101590008168C90708D0C068216C0880206C801C55
:1015A0002064E888401EE880781C07D0FFF77AF8AE
:1015B0000199401AB84201D30326B2E0E08F002817
:1015C000C5D1E9880029C2D15AE0002924D0206879
:1015D0008268920720D5012909D9A16B0988C160C9
:1015E000A06B801CA063E08F801EE08707E0A16BEA
:1015F0004A1CA26309780173E08F401EE087E08FE8
:10160000002809D10120A16A4003814204D1206849
:10161000026849100A430260E988002920D0206846
:101620008268D2071CD0012912D9C068216C0880B9
:10163000206C801C2064E888801E80B2E88001282D
:101640000ED820684168012212031143416007E06F
:10165000017B206C421C22640170E888401EE880F7
:10166000781C07D0FFF71EF80199401AB84201D341
:10167000032656E0E18F0029A7D1E8880028A4D1ED
:101680000120A16A4003814233D101223B46114629
:10169000204600F089F9002805D0206E0221084379
:1016A000206603263DE00F21E0680902884205D14B
:1016B0002068C0680290694608891AE02068007BAB
:1016C000029069460889206B022812D101223B460C
:1016D0001146204600F068F9002805D0206E02214E
:1016E0000843206603261CE02068007B02906946C0
:1016F000088920688168C943C90606D4216E022280
:10170000114321660B49816001263946204600F0CD
:10171000D0F8002801D020202066206E002800D0BC
:1017200001260120687700202877304607B0F0BDF9
:10173000FFDF0000EFFF000004220549042803D06A
:101740000869904308617047086910430861704751
:1017500000E000E07047000010B40B49401E8842D2
:1017600002D910BC01207047084948610848072386
:10177000C2691202120A4C042243C261002088612D
:101780000B6110BC70470000FFFFFF0000E000E0AD
:1017900004ED00E010B5FFF7DDFF10BD70B586B0B9
:1017A00012484269012149040A43426140690840E4
:1017B00000901820019001250295002403940494C0
:1017C0000926F60601A93046FEF7BEFE03204002B8
:1017D000019002200290039403200490059501A932
:1017E0003046FEF7B1FE06B070BD000000100240AA
:1017F00010B50F480D490160FF21053141600021FE
:10180000816007221202C26001614161012252021D
:101810008261C1610162416281620722C262016329
:1018200008214163FFF764FB10BD00000030014058
:1018300088000020F3B581B004460126FF25F60399
:10184000606805357711A84209D1A068B04201D07F
:10185000B84204D12068016840229143016000220F
:1018600080212046029B00F09FF8002806D0206EC1
:10187000202108432066032003B0F0BD6068A84221
:1018800014D1A068B04201D0B8420FD10321002288
:1018900049022046029B00F02DF8002806D0206E59
:1018A000202108432066032003B0F0BD002003B0D0
:1018B000F0BD70B504460E46032133460022C9022E
:1018C000204600F017F82025002804D0206E284379
:1018D0002066032070BD334600228021204600F0A0
:1018E00063F8002804D0206E28432066032070BDD2
:1018F000002070BDF0B583B004460E4617461D4665
:10190000FEF7D0FE0190206880683040B84245D094
:1019100003204002864206D1002F04D12068007BBC
:1019200002906946087A681C33D0002D05D0FEF776
:10193000B9FE0199401AA8422BD320684168E022E1
:10194000914341606068C11FFD390CD10121A0683D
:10195000C903884202D04911884204D12068016835
:101960004022914301600122A06A5203904208D1B3
:10197000206801680B4B1940016020680168114321
:10198000016001204034607700202077032003B0FD
:10199000F0BD206880683040B842B9D1002003B063
:1019A000F0BD0000FFDF0000F8B504460E46174604
:1019B0001D46FEF777FE0090206880683040B842F0
:1019C00039D0681C32D0002D05D0FEF76BFE00998F
:1019D000401AA8422AD320684168E022914341601E
:1019E0006068C11FFD390CD10121A068C90388427C
:1019F00002D04911884204D12068016840229143F5
:101A000001600122A06A5203904208D12068016857
:101A10000A4B1940016020680168114301600120F0
:101A200040346077002020770320F8BD206880686C
:101A30003040B842C5D10020F8BD0000FFDF0000F3
:101A400010B5FFF73DFA03484069002800D08047F1
:101A500010BD00003C00002010B5FEF729FEFFF786
:101A600099FE10BD30B591B0022004900125079574
:101A70001020089000240D9404A8FEF7D5FF0095CF
:101A800001940294039400216846FEF76FFEFEF76E
:101A90006DFF7D21C900FEF723FBFFF75DFE0420EB
:101AA000FFF74AFE00221146501EFEF73DFE11B020
:101AB00030BD0000134801680122114301604168F4
:101AC000114A114041600168104A114001600168EB
:101AD000012292049143016041683F221204914324
:101AE0004160C16A09090901C162016BFF22143218
:101AF00091430163416B49084900416300218160C2
:101B000070470000001002400CB8FF08FFFFF6FE0F
:101B100002E008C8121F08C1002AFAD170477047B6
:101B2000002001E001C1121F002AFBD1704710B54F
:101B30000021084600F05AF810BD0000034610B519
:101B400008461146034CA360606021800022FEF726
:101B5000A3FD10BD64000020014A10605161704770
:101B60003C00002038B502460749064C0B68206847
:101B70006946FFF78FFA002802D02068FFF760FF60
:101B8000009838BD3C0000203800002031B50849DD
:101B9000064C0B68206801226946FFF7ADFB002860
:101BA00002D02068FFF74CFF38BD00003C00002049
:101BB0003800002011B583B00020029009480A4C7B
:101BC00000680090012302AA03A92068FFF75CFCCB
:101BD000002802D02068FFF733FF6846008904B070
:101BE00010BD0000380000203C00002070B5034606
:101BF0000D460A4CA068C26818469047A068C268A3
:101C000028469047012221886068FEF745FD0022A2
:101C100021886068FEF740FD70BD00006400002070
:101C200010B50348002201884068FEF735FD10BD5D
:101C30002800002010B5114C002221886068FEF7B2
:101C40002BFD012221886068FEF726FDA068C1688F
:101C500004208847A068C1680020884700222188A6
:101C60006068FEF719FD012221886068FEF714FD07
:101C7000002221886068FEF70FFD10BD28000020BB
:101C800010B5114C002221886068FEF705FD012285
:101C900021886068FEF700FDA068C16804208847BD
:101CA000A068C168FF208847002221886068FEF78D
:101CB000F3FC012221886068FEF7EEFC00222188F7
:101CC0006068FEF7E9FC10BD2800002070B50546ED
:101CD000114C002221886068FEF7DEFC0122218879
:101CE0006068FEF7D9FCA068C16807208847A06833
:101CF000C16828468847002221886068FEF7CCFC2E
:101D0000012221886068FEF7C7FC002221886068F4
:101D1000FEF7C2FC70BD00002800002010B5114C79
:101D2000002221886068FEF7B7FC012221886068E4
:101D3000FEF7B2FCA068C16804208847A068C168AB
:101D400080208847002221886068FEF7A5FC0122D8
:101D500021886068FEF7A0FC002221886068FEF7F9
:101D60009BFC10BD28000020024B986059601A802F
:101D7000704700002800002070B50546184C00226E
:101D800021886068FEF788FC012221886068FEF7E0
:101D900083FC00206080A068C16806208847A06896
:101DA000C168284688470020C0436080A068016958
:101DB00003208847E0604002000C608000222188F8
:101DC0006068FEF769FC012221886068FEF764FC08
:101DD000002221886068FEF75FFC608870BD00000B
:101DE0002800002070B506460D460D4CA068C1685D
:101DF00000208847A068C16805208847A068C1689E
:101E000030468847A168280AC9688847A168E8B2AF
:101E1000C9688847A068C1680020884770BD000075
:101E20002800002088B0FEF74BFCFFF71BFEFFF7F1
:101E3000B5FCFFF7DDFC8748874942688748904733
:101E4000874E10220925ED06736829468148984778
:101E5000F0688047834C0822636829467D4898478C
:101E60000220FEF7FBFA0127E168384688477E4DDD
:101E70002880606980477D496980A268384690471C
:101E80000120FEF7EBFA03202880E16838468847F6
:101E900028800220E16888472880E1683846884722
:101EA00028806069804772496980A26838469047F7
:101EB000E168384688472880606980476D496980B5
:101EC000A26838469047E168002088472880206A49
:101ED0008047F06880476420FEF7C0FA00240025A0
:101EE0000026002006906448836842680168C06844
:101EF0000493039202910590002001900727019816
:101F0000002857D1072F55D1002C53D1002D51D186
:101F100000260790069001200799B040014389B23E
:101F200007910699084380B20690761C06984C49A2
:101F3000C0438A6880B2079990474B20FEF78EFA1B
:101F4000082EE8DB6420FEF789FAFA264448FF21D0
:101F50008268002090473046FEF780FA4048C0680B
:101F600080473046FEF77AFA0A3E002EEEDC002665
:101F70000020079006903A4940488A6807999047A0
:101F800001200799B040014389B20791069908439F
:101F900080B20690761C0798C04381B230488268B0
:101FA000069890474B20FEF759FA082EE8DB0026EA
:101FB000002006900198810002A84058002806D011
:101FC00001280DD0022814D0032821D119E00121C5
:101FD0000846A840C04380B20690A1408EB217E0E8
:101FE0000120A84086B28020E040C04380B2069025
:101FF0000EE080263046E840C04380B20690E640BE
:1020000006E08026EE400120A040C04380B206904A
:10201000134831468268069890476420FEF71EFAFE
:102020006D1CEDB2BD4200DC69E70198401C0190D7
:10203000019803280BDD00200190641CE4B27F1E90
:10204000BC4200DD0124012F01DA072700242546C8
:1020500055E700003C000020F11700088800002030
:1020600054000020040000200000002025FF000094
:1020700062FF00004F95000080200008FFFF000075
:10208000000000000100000002000000030000004A
:10209000000000000102030401020304060708090E
:1020A000C02000080000002088000000101B00086D
:1020B0004821000888000020D8040000201B0008E8
:1020C0000000380000000000691D0008E51D000840
:1020D000791D0008351C0008811C0008CD1C000873
:1020E0001D1D0008211C0008000000000000000069
:1020F00000000000000000000010000000000000D0
:10210000591B0008B51B00088D1B0008651B000843
:1021100000000000000000003D1B0008ED1B00084F
:102120002F1B00080000000000000000000000005D
:1021300000127A0000000000000000000102030409
:08214000060708090000000079
:04000005080000B13E
:00000001FF
