:020000040800F2
:10000000F0040020C5000008CD000008CF00000863
:1000100000000000000000000000000000000000E0
:10002000000000000000000000000000D1000008F7
:100030000000000000000000D300000825150008A3
:10004000D700000800000000D7000008D700000813
:10005000D7000008D7000008D7000008D700000824
:1000600000000000D700000831010008D700000898
:10007000D7000008D7000008D700000800000000E3
:10008000D70000080000000000000000D7000008B2
:1000900000000000D7000008D7000008D7000008C3
:1000A00000000000D700000800000000D700000892
:1000B0000348854600F02AF8004800471916000852
:1000C000F00400200448804704480047FEE7FEE7AC
:1000D000FEE7FEE7FEE7FEE781150008B100000835
:1000E00030B50B46014600202022012409E00D46D0
:1000F000D5409D4205D31D469540491B2546954058
:1001000040191546521E002DF1DC30BD064C01256C
:10011000064E05E0E36807CC2B430C3C98471034AF
:10012000B442F7D3FFF7C8FFC4170008E41700086C
:1001300010B5034800F07CF8024800F079F810BDD3
:1001400080000020B8000020F0B400281BD0024638
:1001500020325178022919D001680B685B085B00D6
:100160000B60036800211960036859600368996097
:100170000368D960294B0168294C2A4D2A4E9942BF
:1001800007D1022115E0F0BC01207047F0BC01202E
:100190007047A14201D120210BE0A94202D10121E7
:1001A000490206E0B14202D10121490301E00121E7
:1001B00049041E4F79600168994201D108210FE07E
:1001C000A14201D180210BE0A94202D10121C90243
:1001D00006E0B14202D10121C90301E00121C904B5
:1001E00079600168994201D104210FE0A14201D157
:1001F00040210BE0A94202D10121890206E0B1426F
:1002000002D10121890301E00121890479600021E3
:10021000416351701170F0BC00207047080002402B
:100220001C00024030000240440002400000024036
:10023000F8B504466E4802686E4901232068DB0366
:100240006D4E6E4F884201D108210FE0B04201D1BE
:1002500080210BE0B84202D10121C90206E06849C1
:10026000884201D1194601E00121C90425460A400E
:100270002035002A2CD00168C943090728D4016819
:100280000822914301605B492068884201D108201F
:100290000FE0B04201D180200BE0B84202D1012032
:1002A000C00206E05649884201D1184601E001200B
:1002B000C0044F494860606B01210843606304201B
:1002C000687000202870216B002901D020468847E3
:1002D00047480268474920680B15884201D104212C
:1002E0000FE0B04201D140210BE0B84201D11946E4
:1002F00007E04349884202D10121890301E001213D
:1003000089040A4229D00168C943490725D40168F4
:10031000890603D4026804218A43026035492068B3
:10032000884201D104200FE0B04201D140200BE00F
:10033000B84201D1184607E03149884202D1012074
:10034000800301E001208004294948601120687081
:10035000E16A002901D02046884725480268254BDC
:100360002068984201D1022110E0B04201D1202141
:100370000CE0B84202D10121490207E0204988423D
:1003800002D10121490301E0012149040A422DD093
:100390000168C943890729D40168890603D4016823
:1003A0000222914301602068984201D1022010E0AE
:1003B000B04201D120200CE0B84202D1012040021D
:1003C00007E00F49884202D10120400301E00120EB
:1003D000400407494860606B60630120687000203A
:1003E0002870A16A002901D020468847F8BD000086
:1003F00000000240080002401C00024030000240A1
:1004000044000240F0B4002806D0014620314A786A
:100410000025002A03D003E0F0BC012070470D70D6
:1004200002224A70026814680B4B1C4086684368BD
:1004300007693343C6683E4333434669334386699D
:100440003343C66933432343136045630120487037
:10045000F0BC0020704700000FC0FFFF31B500F076
:1004600021F9044600F01EF90099001B8842F9D3D7
:1004700038BD0000F0B50022002959D00123934077
:100480009C460B40002B4FD0056856000324B44017
:10049000A5430560D508AD002D182E6AAE46550758
:1004A000EF0E0F25BD40AE4375462E628568A5430D
:1004B000856045686646B5434560C568A543C56027
:1004C00095081C4CAD002D19AC689607370F0F2608
:1004D000BE403440A4460924E406A04201D10024D1
:1004E0000FE0154CA04201D101240AE0134CA042B8
:1004F00001D1022405E0124CA04201D1032400E006
:100500000524BC4064450FD1AC68B443AC600D4CCD
:1005100025689D43256065689D436560A5689D438A
:10052000A560E5689D43E560521C0B46D340A5D10C
:10053000F0BD000000000140000400480008004831
:10054000000C004800040140F8B400220B68002BA6
:100550007ED0012494400B68A4462340002B78D021
:100560004C68022C01D0122C0CD1D408A400251800
:100570002C6A5607F60E0F27B740BC430F69B740E9
:1005800027432F62076855000324AC40A7430E7928
:10059000B607B60FAE403E4306604E68012E05D04A
:1005A000022E03D0112E01D0122E0ED18768A74340
:1005B000CE68AE403E43866047686646B7430E79D4
:1005C000F606F60F96403E434660C668A6438C6822
:1005D000AC403443C4604C68E4004AD5284CA5695B
:1005E00001263543A561A469344000949508254C43
:1005F000AD002F19BD689407240F0F26A640B54300
:100600000926F606B04201D100260FE01E4EB04288
:1006100001D101260AE01D4EB04201D1022605E0BB
:100620001B4EB04201D1032600E00526A6402E4312
:10063000BE60184D2C689C434E68F60300D51C43E1
:100640002C606C689C434E68B60300D51C4301E0E7
:1006500014E00EE06C60AC689C434E68F60200D576
:100660001C43AC60EC689C434E68B60200D51C434A
:10067000EC60521C0B68D34000D06AE7F8BC7047AE
:10068000001002400000014000040048000800483B
:10069000000C004800040140002A01D0816170472D
:1006A0008162704701480068704700001800002010
:1006B00002480168491C01607047000018000020D2
:1006C00010B506480168102211430160002000F0B7
:1006D00007F800F017F8002010BD000000200240CD
:1006E00010B5044600F04CF97D21C900FFF7F8FC75
:1006F00000F0B2FD00222146501E00F01FF800203D
:1007000010BD000008B507488169012211438161CD
:1007100080691040009000221146501E00F00EF833
:1007200008BD000000100240C106C90E012088402B
:10073000014908607047000000E100E08207D30E25
:10074000FF229A408907090E994000280BDA00071A
:10075000000F0838830808489B001818C3699343A2
:100760000B43C3617047830804489B001818036853
:1007700093430B430360704700ED00E000E400E0AA
:10078000F8B504460F467B480068F022C007C00F4A
:10079000794EB84270D27748016849084900394318
:1007A00001600068C007C00FB84201D00120F8BD49
:1007B0002078800704D57068A16890430843706072
:1007C0002078C00751D06068012806D0022809D0DF
:1007D000316889070BD40120F8BD3168890306D43C
:1007E0000120F8BD3168890101D40120F8BD71688C
:1007F0008908890001437160FFF754FF054660686E
:1008000001280DD002281ED070680007800F2CD060
:100810005A4FFFF747FF401BB84227D90320F8BDC6
:1008200070680007800F01281FD0544FFFF73AFF70
:10083000401BB84201D90320F8BD70680007800F43
:100840000128F3D187E070680007800F02280CD0E0
:100850004A4FFFF727FF401BB84201D90320F8BDDC
:1008600070680007800F0228F3D174E070680007F9
:10087000800FCED16FE0FFE72078800704D5706845
:10088000A1689043084370602078C00756D0606824
:10089000012806D0022809D0316889070BD401202D
:1008A000F8BD3168890306D40120F8BD316889019B
:1008B00001D40120F8BD7168890889000143716085
:1008C000FFF7F0FE0546606801280DD002281ED013
:1008D00070680007800F31D0FFF7E4FE411B274806
:1008E000814227D90320F8BD70680007800F0128D6
:1008F00024D0FFF7D7FE411B2048814201D90320B5
:10090000F8BD70680007800F0128F2D116E070680A
:100910000007800F022811D0FFF7C4FE411B1748C3
:10092000814201D90320F8BD70680007800F0228BA
:10093000F2D103E070680007800FCDD10D48016847
:1009400049084900394301600068C007C00FB84238
:1009500001D00120F8BD2078400706D57068072136
:1009600009028843E168084370600020FFF7B8FE81
:100970000020F8BD00200240001002408813000053
:1009800010B500F011F805494968054A0906090F34
:10099000515CC8400349086010BD000000100240CF
:1009A000B41700080400002010B588B018A04368F0
:1009B00082680168C068059306920491079018A0A8
:1009C000836842680168C0680293019200910390B5
:1009D000174B5A680C2011460140164804290FD0C5
:1009E00008290DD19102090F04AC645CD96A6B46E9
:1009F0000907090F595CD20304D5FFF771FB604367
:100A000008B010BD0C492046484308B010BD000096
:100A100002030405060708090A0B0C0D0E0F10103F
:100A20000102030405060708090A0B0C0D0E0F103E
:100A30000010024000127A0000093D00F0B583B0BA
:100A400004462078FE4EFF4DC0077BD06868000743
:100A5000800F012807D068680007800F02280BD19B
:100A60006868C00308D5286880036BD560680028D3
:100A700068D1012003B0F0BD286801273F04B843C6
:100A800028602868B90088432860FFF70BFE0290B1
:100A9000286880030BD5FFF705FE0299401AB04283
:100AA00002D9032003B0F0BD28688003F3D4606846
:100AB00001281CD000281ED0052825D02868B8435E
:100AC000286029680120800481432960606800282B
:100AD00027D0FFF7E7FD07462868800332D4FFF7E9
:100AE000E1FDC01BB04218D9032003B0F0BD286857
:100AF00038432860EAE72868B8432860296801205D
:100B0000800481432960E1E72868012189040843C2
:100B10002860286838432860D8E728688003DED535
:100B200010E0FFF7BFFD0746286880030AD5FFF7EE
:100B3000B9FDC01BB04202D9032003B0F0BD286844
:100B40008003F4D4207801278007002852DA6868EF
:100B50000007800F07D068680007800F022813D1B4
:100B60006868C00310D42868800705D5E0680128AC
:100B700002D0012003B0F0BD2868F8218843216924
:100B8000C9000843286035E0E06800281CD02868C8
:100B900038432860FFF786FD0290286880070BD451
:100BA000FFF780FD0299401A642802D9032003B0A0
:100BB000F0BD28688007F3D52868F82188432169AB
:100BC000C9000843286015E02868400840002860F4
:100BD000FFF768FD0290286880070BD5FFF762FDDC
:100BE0000299401A642802D9032003B0F0BD286896
:100BF0008007F3D4207800072ED5206A002815D06E
:100C0000686A38436862FFF74DFD0290686A8007A2
:100C100022D4FFF747FD0299401A642802D9032025
:100C200003B0F0BD686A8007F3D515E0686A400834
:100C300040006862FFF736FD0290686A80070BD5B6
:100C4000FFF730FD0299401A642802D9032003B04F
:100C5000F0BD686A8007F3D42078400771D5E86951
:100C6000012109070843E861E869084001907648D6
:100C700000680915084374490860FFF713FD0290E6
:100C800071480068C0050CD4FFF70CFD0299401AAA
:100C9000642802D9032003B0F0BD6B480068C0058A
:100CA000F2D5286A400840002862296A042081435E
:100CB0002962FFF7F7FC0290286A80070BD5FFF73F
:100CC000F1FC0299401AB04202D9032003B0F0BDF2
:100CD000286A8007F3D4A06801281DD000281FD0FF
:100CE000052826D0286A400840002862296A042086
:100CF00081432962A068002828D0FFF7D3FC029026
:100D0000286A800734D4FFF7CDFC0299401AB0421C
:100D100018D9032003B0F0BD286A38432862E9E7F8
:100D2000286A400840002862296A04208143296219
:100D3000E0E7286A042108432862286A38432862C9
:100D4000D8E715E0286A8007DDD511E0FFF7AAFC97
:100D50000290286A80070BD5FFF7A4FC0299401A7D
:100D6000B04202D9032003B0F0BD286A8007F3D453
:100D70002078C00649D56069012817D0401D35D0BC
:100D8000686B042108436863686B4008400068632F
:100D9000FFF788FC0646686B800736D5FFF782FCB4
:100DA000801B64282ED9032003B0F0BD686B04219A
:100DB00008436863686B38436863FFF773FC064653
:100DC000686B80070AD4FFF76DFC801B642802D98A
:100DD000032003B0F0BD686B8007F4D5686BF82181
:100DE0008843A169C900084368630EE0686B042169
:100DF00088436863686BF8218843A169C900084388
:100E0000686302E0686B8007C8D4606A00285BD022
:100E100069680907890F022959D001263606022878
:100E200017D02868B0432860FFF73CFC04462868C8
:100E3000800149D5FFF736FC001B642841D905E045
:100E4000881300000010024000700040032003B02F
:100E5000F0BD2868B0432860FFF724FC07462868E7
:100E600080010AD5FFF71EFCC01B642802D90320AD
:100E700003B0F0BD28688001F4D4E86A216B000952
:100E800000010843E862A16AE06A084369683D22FC
:100E90001204914308436860286830432860FFF7D4
:100EA00001FC0446286880010ED4FFF7FBFB001B01
:100EB000642802D9032003B0F0BD28688001F4D56E
:100EC00002E028688001B5D4002003B0F0BD012005
:100ED00003B0F0BD70B50446002C10D002202546AA
:100EE00040356877206801684022914301602046C0
:100EF00000F072F8002020666877287770BD012026
:100F000070BD0000F8B50446002C06D025464035DB
:100F1000687F0026002802D005E00120F8BD2E776A
:100F2000204600F075F802226A77206801684023A5
:100F3000994301600723E0681B02984201D9002110
:100F400001E0012109030F273F02B84202D0984275
:100F500000D0A662276B002F05D1984201D92263E9
:100F600001E001202063A268606863691043226980
:100F70001A4310430123A2695B021A401043E2693D
:100F80001043226A1043A26A104322681060206B4B
:100F9000022804D1206802689B001A430260626B39
:100FA000606AA36910431B0C0427E2683B401A43A4
:100FB00010430843216848602168E06A086120689E
:100FC000C169044A1140C16126660120687700208A
:100FD000F8BD0000FFF7000010B504460A4920687C
:100FE00088420FD1094881698214914381610920A7
:100FF000E021C006FFF73EFAA06DFFF7A5F8606D8F
:10100000FFF7A2F810BD00000030014000100240C0
:10101000F0B587B004461E492068884235D11D4886
:10102000826981140A438261806908400190E0204E
:101030000290022003900025049503200590069558
:10104000092002A9C006FFF77FFA144E124830604B
:101050007560B5608027F76035617561B561F561D0
:101060003046FFF7CFF9A66574620E4E0C4830602B
:1010700010207060B560F76035617561B561F5612C
:101080003046FFF7BFF96665746207B0F0BD000037
:1010900000300140001002401C000240800000208F
:1010A00030000240B8000020FFB583B004461D4662
:1010B000FFF7F8FA0290002726464036307F0128D5
:1010C00006D001203077707F012804D00227AAE0E3
:1010D000022007B0F0BD0498002848D005980028E9
:1010E00045D003207077002020660499A1630599FC
:1010F000A1870599E1872064B080F0800121A06874
:10110000C903884205D12068016801229203114376
:1011100001600120A16A400381420AD12068016870
:10112000444A1140016020680168012252031143C2
:10113000016020680168490603D401684022114318
:1011400001600721E0680902884222D9E08F002867
:101150004BD02068816889070BD5A16B0988C160D5
:10116000A06B801CA063E08F401EE0870DE001278C
:1011700059E0002D07D0681C07D0FFF793FA0299B9
:10118000401AA84201D303274DE0E08F0028E0D1A8
:101190002BE0E08F002828D020688168890715D5CA
:1011A000E18F012909D9A16B0988C160A06B801C5E
:1011B000A063E08F801EE08714E0A16B4A1CA2634D
:1011C00009780173E08F401EE0870BE0002D07D007
:1011D000681C07D0FFF766FA0299401AA84201D3AB
:1011E000032720E0E08F0028D6D10120A16A400328
:1011F000814205D120680168012212031143016078
:101200002946204600F0AAF8002801D020202066B8
:10121000A068002803D12068C16880680190206E12
:10122000002800D001270120707700203077384651
:1012300007B0F0BDFFDF000004220549042803D0F9
:101240000869904308617047086910430861704756
:1012500000E000E07047000010B40B49401E8842D7
:1012600002D910BC0120704708494861084807238B
:10127000C2691202120A4C042243C2610020886132
:101280000B6110BC70470000FFFFFF0000E000E0B2
:1012900004ED00E010B5FFF7DDFF10BD08B508480C
:1012A00041690122114341614069104000900022D0
:1012B00011460A20FFF742FA0A20FFF735FA08BD67
:1012C0000010024070B586B01248426901214904FD
:1012D0000A434261406908400090182001900125AE
:1012E00002950024039404940926F60601A93046C9
:1012F000FFF72AF903204002019002200290039494
:1013000003200490059501A93046FFF71DF906B0AA
:1013100070BD00000010024010B50F480D4901607B
:10132000FF21053141600021816007221202C26065
:1013300001614161012252028261C1610162416227
:1013400081620722C262016308214163FFF7DAFD6F
:1013500010BD0000003001401C00002070B50446A4
:101360000E46032133460022C902204600F018F839
:101370002025002804D0206E28432066032070BD5D
:10138000334600228021204600F064F8002804D073
:10139000206E28432066032070BD002070BD000031
:1013A000F0B583B004460E4617461D46FFF77AF99E
:1013B0000190206880683040B84245D00320400248
:1013C000864206D1002F04D12068007B0290694636
:1013D000087A681C33D0002D05D0FFF763F9019916
:1013E000401AA8422BD320684168E0229143416013
:1013F0006068C11FFD390CD10121A068C903884272
:1014000002D04911884204D12068016840229143EA
:1014100001600122A06A5203904208D1206801684D
:101420000B4B1940016020680168114301600120E5
:101430004034607700202077032003B0F0BD20689F
:1014400080683040B842B9D1002003B0F0BD000040
:10145000FFDF0000F8B504460E4617461D46FFF7AD
:1014600021F90090206880683040B84239D0681C6B
:1014700032D0002D05D0FFF715F90099401AA84287
:101480002AD320684168E022914341606068C11F0F
:10149000FD390CD10121A068C903884202D049114D
:1014A000884204D1206801684022914301600122F2
:1014B000A06A5203904208D1206801680A4B194083
:1014C00001602068016811430160012040346077A9
:1014D000002020770320F8BD206880683040B842A3
:1014E000C5D10020F8BD0000FFDF000010B50348A3
:1014F000FFF7F0FCFFF710FF10BD00001C000020FC
:1015000001B506480122036869460548FFF7CCFD8E
:10151000002801D0FFF7EAFF08BD0000000000200E
:101520001C00002010B5FFF7C3F8FFF7B3FE10BD95
:1015300030B591B002200490012507951020089045
:1015400000240D9404A8FFF779FA00950194029401
:10155000039400216846FFF713F9FFF711FA7D2184
:10156000C900FEF7BDFDFFF777FE0420FFF764FE1C
:1015700000221146501EFFF7E1F811B030BD000007
:10158000134801680122114301604168114A11406A
:1015900041600168104A1140016001680122920413
:1015A0009143016041683F22120491434160C16A46
:1015B00009090901C162016BFF22143291430163E1
:1015C000416B490849004163002181607047000078
:1015D000001002400CB8FF08FFFFF6FE02E008C84A
:1015E000121F08C1002AFAD170477047002001E09D
:1015F00001C1121F002AFBD1704710B50924E4066F
:10160000002210212046FFF747F801221021204632
:10161000FFF742F810BD00008AB0FFF751F8FFF75E
:1016200087FFFFF74FFEFFF739FEFFF775FE5B4FB1
:10163000386808900020FFF763FF0020FFF760FF85
:10164000FFF7DBFF6420FEF709FF002400250026DA
:10165000002006903F1D0FCF059304920391029046
:101660000020019007270198002845D1072F43D17A
:10167000002C41D1002D3FD100260790069001207B
:101680000799B040014389B207910699084380B297
:101690000690761C0698C043099080B2FFF730FF91
:1016A0000798FFF72DFFFFF7A8FF4B20FEF7D6FEA8
:1016B000082EE4DB6420FEF7D1FEFF262D360998C4
:1016C00080B2FFF71DFF0798FFF71AFFFFF795FF9E
:1016D0003046FEF7C3FE0020FFF712FF0020FFF7A1
:1016E0000FFFFFF78AFF3046FEF7B8FE0A3E002ED6
:1016F000E5DC0026002006900198810002A84058F1
:10170000002806D001280DD0022814D0032821D1AA
:1017100019E001210846A840C04380B20690A140CC
:101720008EB217E00120A84086B28020E040C0437E
:1017300080B206900EE080263046E840C04380B27A
:101740000690E64006E08026EE400120A040C0431F
:1017500080B206900698FFF7D3FE3046FFF7D0FE22
:10176000FFF74BFF6420FEF779FE6D1CEDB2BD4222
:1017700000DC78E70198401C0190019803280BDDFC
:1017800000200190641CE4B27F1EBC4200DD0124F5
:10179000012F01DA07270024254664E7A017000877
:1017A000A0000A000000000001000000020000008C
:1017B0000300000000000000010203040102030412
:1017C00006070809E4170008000000201C000000BC
:1017D000DC150008001800081C000020D4040000DC
:1017E000EC1500080010000000127A000000000054
:1017F00000000000010203040607080900000000C1
:04000005080000B13E
:00000001FF
